S00C0000746573742E7372656358
S11300006F004000130101FE233C110023388100DE
S113001013040102930710002334F4FE833584FE95
S1130020033504FE97000000E78000002330A4FE9F
S11300309307000013850700833081010334010115
S11300401301010267800000130101FD23348102C2
S113005013040103233CA4FC2338B4FC233404FE1E
S1130060232204FE6F000003033784FD833704FD5D
S1130070B307F700033784FEB307F7002334F4FE15
S1130080832744FE9B8707009B8717009B870700F5
S11300902322F4FE832744FE9B870700138707006F
S11300A093073006E3D2E7FC833784FE1385070009
S10F00B003348102130101036780000087
S9030000FC
